:03000000020A22CF
:0C0A2200787FE4F6D8FD758172020A6945
:100B3500083F101010101010101005491002030581
:100B450000082F0002000000000000027107D00815
:100B55005A001000100010000003210D0305013993
:100B6500180A5000100002000300050000033C0DA8
:100B750003050865000000000000000006240000D1
:040B8500000000006C
:0F102F00E52AB40102B201E52AB40302B200229D
:1007D500E52A64017060200130C3E57294E8E57193
:1007E500648094834019D3E5729440E571648094E4
:1007F5009F500CE57224E8FFE5713403FE8004AEDA
:1008050071AF728E718F72802DC3E52C947CE52BB0
:100815006480947C4018D3E52C9420E52B64809467
:1008250083500BE52C2464FFE4352BFE8004AE2BAE
:10083500AF2C8E2B8F2CC3E52B648094805049758B
:100845005A00755B13C3E4952CFBE4952BFA7C00E9
:100855007D64AF03FE1203CA7C007D0A1203CA8CB5
:100865005C8D5D7C007D0AAF03AE021203CA7C007D
:100875007D0A1203CA8C5E8D5FAE02AF037C007DDC
:100885000A1203CA8C608D61D3E52C9400E52B64B4
:100895008094804041755A00755B10AE2BAF2C7C5F
:1008A500007D641203CA7C007D0A1203CA8C5C8D2C
:1008B5005DAE2BAF2C7C007D0A1203CA7C007D0A3D
:1008C5001203CA8C5E8D5FAE2BAF2C7C007D0A12A5
:1008D50003CA8C608D61E52C452B7013F55A755B49
:1008E50010F55C755D10F55E755F10F560F561AE30
:1008F50071AF727C037DE81203CA7C007D0A120386
:10090500CA8C2F8D30AE71AF727C007D641203CA24
:100915007C007D0A1203CA8C318D32AE71AF727CB8
:10092500007D0A1203CA7C007D0A1203CA8C338D2E
:1009350034AE71AF727C007D0A1203CA8C358D36D8
:01094500228F
:10066300E52A64017061200130C3E57294D0E5711D
:10067300648094874019D3E5729428E5716480946B
:10068300A3500CE5722418FFE57134FCFE8004AE20
:1006930071AF728E718F72802EC3E52C94E0E52BBF
:1006A3006480947C4019D3E52C9484E52B64809476
:1006B30083500CE52C249CFFE52B34FFFE8004AE15
:1006C3002BAF2C8E2B8F2CC3E52B64809480504949
:1006D300755A00755B13C3E4952CFBE4952BFA7CE8
:1006E300007D64AF03FE1203CA7C007D0A1203CAB5
:1006F3008C5C8D5D7C007D0AAF03AE021203CA7C65
:10070300007D0A1203CA8C5E8D5FAE02AF037C00CC
:100713007D0A1203CA8C608D61D3E52C9400E52B0E
:10072300648094804041755A00755B10AE2BAF2CEA
:100733007C007D641203CA7C007D0A1203CA8C5CB0
:100743008D5DAE2BAF2C7C007D0A1203CA7C007D2D
:100753000A1203CA8C5E8D5FAE2BAF2C7C007D0A20
:100763001203CA8C608D61E52C452B7013F55A7505
:100773005B10F55C755D10F55E755F10F560F561F6
:10078300AE71AF727C037DE81203CA7C007D0A124E
:1007930003CA8C2F8D30AE71AF727C007D6412035F
:1007A300CA7C007D0A1203CA8C318D32AE71AF72DE
:1007B3007C007D0A1203CA7C007D0A1203CA8C33B3
:1007C3008D34AE71AF727C007D0A1203CA8C358DF5
:0107D30036EF
:0107D4002202
:100CCA00E562704B756201120C018F63E54F656333
:100CDA00FFE563F45FF56DE5635FF54E85634F24C9
:100CEA00FE602324FD602214602224057021E52A77
:100CFA007002C201E52AB40202C200052AE52AB43A
:100D0A00040DE4F52A2202102F0207D512066322E7
:100D9E00200119753F11754001754110754210857E
:100DAE00304385324485344585364622753F11756C
:100DBE004002754110754210855B43855D44855F29
:050DCE0045856146228D
:100B9C00200019753F1275400F7541108551428523
:100BAC00534385554485574585594622753F1275E3
:100BBC00400AE53C75F00A8475F00A8485F041E53D
:100BCC003C75F00A8485F042E53D75F00A8475F0B9
:100BDC000A8485F043E53D75F00A8485F044E53ED2
:100BEC0075F00A8475F00A8485F045E53E75F00AC7
:050BFC008485F0462293
:100AAE007B007A007921120E07E54845477077E5FD
:100ABE002A14602314602314606924037068753F40
:100ACE000F754010754110854942854A43854B4448
:100ADE00854C45854D4622020D9EE52175F00A8412
:100AEE0075F00A8485F03FE52175F00A8485F040A3
:100AFE00754113E52275F00A8475F00A8485F0427B
:100B0E00E52275F00A8485F043754413E52375F0EC
:100B1E000A8475F00A8485F045E52375F00A84850C
:070B2E00F04622120B9C228D
:100C6600E52A7004D202800FC202E4F565E565FD4F
:100C76007C00E4FF120D63D3E52E9572E571648066
:100C8600F8E52D6480984004D2038029D3E52E959B
:100C960072E5716480F8E52D6480985018C3E52DDF
:100CA60064809480400FC203E4F566E566FD7C002F
:100CB6007F01120D63C3E52D648094805003D20436
:040CC60022C2042220
:100F0500E5A0541F44B0F5A0E4F58075A01F7580D9
:100F1500FFE5A0541F4480F5A07580FF75A01F2232
:100FB000758906758B30758DF8C28FD28DD28ED221
:080FC0008CD2AFD2A9D2AB2202
:10046300E4F50CE53825E0FFE53733FEE52C2FF501
:100473002EE52B3EF52DC364809480500302055C6A
:10048300AE2DAF2E7C277D101203CA7C007D0A128D
:1004930003CAED4C70047F108002AF058F49E54914
:1004A30064107020AE2DAF2E7C037DE81203CA7C4E
:1004B300007D0A1203CAED4C70047F108002AF0561
:1004C3008F4A8014AE2DAF2E7C037DE81203CA7CC5
:1004D300007D0A1203CA8D4AE54A6410701FAE2DCF
:1004E300AF2EFC7D641203CA7C007D0A1203CAEDA1
:1004F3004C70047F108002AF058F4B8014AE2DAF7C
:100503002E7C007D641203CA7C007D0A1203CA8D0F
:100513004BE54B6410701FAE2DAF2EFC7D0A12030A
:10052300CA7C007D0A1203CAED4C70047F1080025E
:10053300AF058F4C8014AE2DAF2E7C007D0A1203C5
:10054300CA7C007D0A1203CA8D4CAE2DAF2E7C00EF
:100553007D0A1203CA8D4D800F754910754A1075B7
:100563004B10754C14754D14C3E52D648094805065
:1005730005E4FF120FE0C3E52D648094804012D39D
:10058300E52E94F4E52D6480948150057F33120F9A
:10059300E0D3E52E94F4E52D648094814060D3E5A7
:1005A3002E9572E5716480F8E52D648098504FE5CF
:1005B3002E240CFDE52D34FEFC1202C18F108E0F8C
:1005C3008D0E8C0DE572240CFDE57134FEFC1202D8
:1005D300C1AB07AA06A905A804AF10AE0FAD0EACB8
:1005E3000D12021FE4FBFA794C7843120116E4FB67
:1005F300FA794C78421200251202FA120FE0D3E581
:100603002E9572E5716480F8E52D64809840057F2E
:10061300FF120FE0C3E53B952EE52D6480F8E53A24
:100623006480985035852D3A852E3BE4F50C742172
:10063300250CF8E6FF743C250CF8A607050CE50C21
:10064300B403EBE4FF74492FF8E6FDEF25E02450F3
:0F065300F8760008A6050FBF05EBE4F537F5387C
:010662002275
:03000B00021009D7
:10100900C0E0758CFF758AFF0538E5387002053731
:03101900D0E032F2
:03001B0002094691
:10094600C0E0C0F0C083C082C0D075D000C000C077
:1009560001C002C003C004C005C006C007758B30C5
:10096600758DF8120C6675A0FF0562E562B40A0380
:100976007562000564E564B40803756400E54864BF
:100986006445477004F547F54830021F0525E525FF
:1009960070020524646445247011F524F525636509
:1009A600FFE565FD7C00E4FF120D6330031F05279C
:1009B600E52770020526646445267011F526F5279D
:1009C6006366FFE566FD7C007F01120D6330040D52
:1009D600756601E566FD7C007F01120D630570E515
:1009E600707002056F64FA456F7007F56FF5701247
:1009F6000463120C66743F2564F8E6FDAF64120EBC
:100A06003BD007D006D005D004D003D002D001D009
:0C0A160000D0D0D082D083D0F0D0E032ED
:100F7C00120FB0120F057B007A007921120D1A1294
:0A0F8C000CCA120AAE120C6680F5C2
:100C0100E4FFC2C4D2C2D2B5D2B420B3030F801361
:100C110020B2047F02800C20B1047F03800520B044
:100C2100027F04D2C4C2C2D2B5D2B420B3047F05BC
:100C3100801320B2047F06800C20B1047F07800559
:100C410020B0027F08D2C4D2C2C2B5D2B420B3034D
:100C51007F092220B2037F0A2220B1037F0B2220C9
:040C6100B0027F0C52
:010C6500226C
:100F2500C0F9A4B0999282F880908883C6A1868E74
:0D0F3500FF8C89BFC7010204081020408016
:100E3B007580FFE5A0541F44E0F5A053A01FEF9071
:100E4B000F3A93F580E5A0541F44C0F5A053A01FA3
:100E5B00ED900F2593F580E5A0541F44E0F5A053CA
:030E6B00A01F22A3
:10101C00E4FEC297EF1392A3EFC313FFD2970EBE59
:02102C0008F0CA
:01102E00229F
:100FF500C29300C29700D2930012101CAF051210C5
:041005001CC2932254
:100DD300E4FDC29300C29700D2930012101CE4FFFB
:100DE300C297EDC313FD30A303430580D2970FBF12
:100DF30008EEC29300C29700D29700C2A300D2A309
:030E030000AF0538
:010E060022C9
:060D1A008B088A09890A1A
:090D2000E4FCFD7F8E120FF5E4E6
:100D2900AB08AA09A90A8C8275830012037BFF7597
:100D3900F00A84C454F0FEEF75F00A84E5F04EF52C
:0F0D49000BEC25E0FFC374849FFFAD0B120FF579
:0B0D58000CBC03CD7D807F8E020FF5E8
:060E07008B088A09890A2C
:100E0D00E4FCEC25E0FFC374859FFF120DD3EFC406
:100E1D00540F75F00AA4FEEF540F2EAB08AA09A9C2
:0D0E2D000A8C827583001203A80CBC03D54B
:010E3A002295
:040F9600D2A07F0561
:100F9A00000000000000000000000000000000AE99
:060FAA00071FEE70EB22B0
:0F103E00D2A1120F96C2A17F05120F9AC2A02253
:0C000E00C2A1120F96D2A17F05020F9A2A
:020E6E00AD07CE
:100E7000E4FCC2A07F05120F9AED30E704D2A180F6
:100E800002C2A17F05120F9AD2A0ED25E0FD7F05D9
:090E9000120F9A0CBC08DBC2A091
:010E99002236
:100F4200E4FC120F96ED25E0FD30A103430501C23A
:0C0F5200A07F05120F9A0CBC08E8AF0548
:010F5E002270
:0B0F5F00120E6E120F6AAF03120E6E2E
:100F6A00120F96A2A1E433FDC2A07F05120F9AAF19
:010F7A000571
:010F7B002253
:100FC800C2A0EF24FF92A17F05120F9A120F96C2BA
:080FD800A0D2A17F05020F9ACF
:020E9A00AB07A4
:100E9C0012103E7F90120F5F12103E7F91120E6E59
:100EAC00120F6A120F42AD077F01120FC812000E0B
:020EBC00AF0580
:010EBE002211
:100FE000AB0712103E7F90120E6E120F6A7F4112F5
:050FF0000F5F02000E7E
:100B89000111000112FF0113000114FF01150001F9
:020B990016FF45
:100D6300ED4C600FA8077401088002C333D8FC421E
:100D730011800EA8077401088002C333D8FCF45213
:100D830011E51165126013E511F4F580E5A0541F18
:0A0D93004480F5A053A01F85111243
:010D9D002233
:100EBF00EF600543134080035313BFE513651460C0
:100ECF0011851380E5A0541F44A0F5A053A01F85E2
:020EDF001314EA
:010EE10022EE
:100EE200EF600543151080035315EFE51565166095
:100EF20011851580E5A0541F44A0F5A053A01F85BD
:020F02001516C2
:010F040022CA
:10001E00020366E86480F8E933E83360110460F0A7
:10002E00ED33EC337009E8FCE9FDEAFEEBFF220448
:10003E0060DED3EB9FEA9EE99DE8C2E78CF0C2F743
:10004E0095F0400CE8CCF8E9CDF9EACEFAEBCFFB0F
:10005E0012033185D0F05804700320D5B3E8047034
:10006E00075002B2D502037092D5EC0460F7E4CCCF
:10007E00C0E0C398F8603B94186008400DD0E0FBD8
:10008E00020348E4FBFAC9FC8028E830E406E4C920
:10009E00FBE4CAFCE830E305E4C9CACBFCE854072C
:1000AE006010F8C3E913F9EA13FAEB13FBEC13FC37
:1000BE00D8F130F52FC3E49CFCEF9BFFEE9AFEEDDA
:1000CE0099FDD0E0FBEF4E4D4C701222DB03020384
:1000DE006DEC2CFCEF33FFEE33FEED33FDED30E730
:1000EE00EB020348EF2BFFEE3AFEED39FDD0E0FBBD
:1000FE0050130BBB0003020370ED13FDEE13FEEF66
:08010E0013FFEC13FC0203488F
:10011600EC4D6011E8497017ED33EC3304600DE4E3
:10012600FCFFFEFD22E933E8330470F80203661291
:10013600033158046009E4CC248150062850090292
:10014600037028400302036DC0E0EB4A7044B98097
:1001560006D0E0FB02035CEF4E701CBD8008EBFF8F
:10016600EAFEE9FD80EBE98DF0A4FEE5F00201FF71
:10017600E9CDF9EAFEEBFFEF89F0A4FCE5F0CE89C4
:10018600F0A42EFFE435F0CD89F0A42DFEE435F081
:100196008067EF4E7005BD80D780C3EF8BF0A4ACAF
:1001A600F0EE8BF0A42CFCE435F0F8EF8AF0A42CEA
:1001B600E5F038FCE433CB8DF0A42CFCE5F03BF8FD
:1001C600EE8AF0A42CFCE5F038F8E433CF89F0A4ED
:1001D6002CFCE5F038CF3400CE89F0A42FFFE5F0F3
:1001E6003EFEE433C98DF0A42EFEE5F039CD8AF04B
:1001F600A42FFFE5F03EFEE43DFD33D0E0FB5007C3
:100206000BBB000F020370EC2CFCEF33FFEE33FE4A
:06021600ED33FD02034878
:10021C00020370EC5D046005E85904700302036688
:10022C00120331580460F6EC4860F2EC7004FDFEE9
:10023C00FF22C860DB2481C85009C39860025006B5
:10024C0002036D9850CAF582E9294B4A7005AB82BE
:10025C0002035C75F0007C1A7880C3EF9BEE9AED7C
:10026C0099400DC3EF9BFFEE9AFEED99FDE842F02D
:10027C00DC23ACF0D0E0FFD0E0FED0E0FDAB822080
:10028C00E7101BEB60BAEC2CFCEF33FFEE33FEED0A
:10029C0033FD020348E803F830E705C0F075F000C1
:1002AC00EF2FFFEE33FEED33FD40B830E7C280AAEE
:1002BC0075F020800E75F010800575F0087D007EBD
:1002CC00007F003392D530D503120400EC3340107C
:1002DC00EF33FFEE33FEED33FDEC33FCD5F0ED22C6
:0E02EC00E5F0247EA2D513CC92E7CDCEFF2202
:1002FA00EDD2E7CD33EC3392D524814006E4FFFEFC
:10030A00FDFC22FCE4CFCECDCC24E0501174FF805A
:10031A00EDC3CC13CCCD13CDCE13CECF13CF0470F7
:07032A00F030D5DE020400F3
:10033100E9D2E7C933E833F892D5EDD2E7CD33EC12
:0703410033FC5002B2D5228B
:10034800EC30E7100FBF000C0EBE00080DBD000416
:100358000BEB6014A2D5EB13FCED92E7FD2274FFC2
:10036800FCFDFEFF22E480F8A2D574FF13FC7D801B
:03037800E480EF2F
:100A2E00020F7CE493A3F8E493A34003F68001F253
:100A3E0008DFF48029E493A3F85407240CC8C333C9
:100A4E00C4540F4420C8834004F456800146F6DF98
:100A5E00E4800B0102040810204080900B35E47EE8
:100A6E00019360BCA3FF543F30E509541FFEE4938D
:100A7E00A360010ECF54C025E060A840B8E493A354
:100A8E00FAE493A3F8E493A3C8C582C8CAC583CA7F
:100A9E00F0A3C8C582C8CAC583CADFE9DEE780BE37
:010B9B000059
:10037B00BB010CE58229F582E5833AF583E0225037
:10038B0006E92582F8E622BBFE06E92582F8E22281
:0D039B00E58229F582E5833AF583E493229B
:1003A800F8BB010DE58229F582E5833AF583E8F08B
:1003B800225006E92582C8F622BBFE05E92582C837
:0203C800F2221F
:1003CA00C2D5EC30E709B2D5E4C39DFDE49CFCEE4E
:1003DA0030E715B2D5E4C39FFFE49EFE12040EC3B4
:1003EA00E49DFDE49CFC800312040E30D507C3E4AF
:0603FA009FFFE49EFE22BD
:0E040000C3E49FFFE49EFEE49DFDE49CFC220D
:10040E00BC000BBE0029EF8DF084FFADF022E4CCD2
:10041E00F875F008EF2FFFEE33FEEC33FCEE9DEC9B
:10042E00984005FCEE9DFE0FD5F0E9E4CEFD22EDE1
:10043E00F8F5F0EE8420D21CFEADF075F008EF2F2B
:10044E00FFED33FD4007985006D5F0F222C398FD1C
:05045E000FD5F0EA22B9
:00000001FF
