:03000000020A7A77
:0C0A7A00787FE4F6D8FD758164020AC1A3
:100C5700083910101010101010100543100203056A
:100C67000008290002000000000000026307D00806
:100C770054001000100010000003210D030501337C
:100C8700180A4A0010000200030005000003360D91
:020C9700030553
:0F101100E524B40102B201E524B40302B20022C7
:1007E800E52464017060200130C3E56494E8E563A2
:1007F800648094834019D3E5649440E563648094ED
:100808009F500CE56424E8FFE5633403FE8004AEE2
:1008180063AF648E638F64802DC3E526947CE525E1
:100828006480947C4018D3E5269420E52564809460
:1008380083500BE5262464FFE43525FE8004AE25AD
:10084800AF268E258F26C3E5256480948050497590
:100858005400755513C3E49526FBE49525FA7C00EE
:100868007D64AF03FE1203DC7C007D0A1203DC8C7E
:10087800568D577C007D0AAF03AE021203DC7C0064
:100888007D0A1203DC8C588D59AE02AF037C007DC3
:100898000A1203DC8C5A8D5BD3E5269400E52564A7
:1008A8008094804041755400755510AE25AF267C64
:1008B800007D641203DC7C007D0A1203DC8C568DFB
:1008C80057AE25AF267C007D0A1203DC7C007D0A2A
:1008D8001203DC8C588D59AE25AF267C007D0A1298
:1008E80003DC8C5A8D5BE52645257013F554755548
:1008F80010F556755710F558755910F55AF55BAE41
:1009080063AF647C037DE81203DC7C007D0A12037C
:10091800DC8C298D2AAE63AF647C007D641203DC15
:100928007C007D0A1203DC8C2B8D2CAE63AF647CBB
:10093800007D0A1203DC7C007D0A1203DC8C2D8DFD
:100948002EAE63AF647C007D0A1203DC8C2F8D30E1
:01095800227C
:10067600E52464017061200130C3E56494D0E5632C
:10068600648094874019D3E5649428E56364809474
:10069600A3500CE5642418FFE56334FCFE8004AE29
:1006A60063AF648E638F64802EC3E52694E0E525F0
:1006B6006480947C4019D3E5269484E5256480946F
:1006C60083500CE526249CFFE52534FFFE8004AE0E
:1006D60025AF268E258F26C3E52564809480504954
:1006E600755400755513C3E49526FBE49525FA7CED
:1006F600007D64AF03FE1203DC7C007D0A1203DC7E
:100706008C568D577C007D0AAF03AE021203DC7C4B
:10071600007D0A1203DC8C588D59AE02AF037C00B3
:100726007D0A1203DC8C5A8D5BD3E5269400E52501
:10073600648094804041755400755510AE25AF26EF
:100746007C007D641203DC7C007D0A1203DC8C567F
:100756008D57AE25AF267C007D0A1203DC7C007D1A
:100766000A1203DC8C588D59AE25AF267C007D0A13
:100776001203DC8C5A8D5BE52645257013F55475FE
:100786005510F556755710F558755910F55AF55B0D
:10079600AE63AF647C037DE81203DC7C007D0A1245
:1007A60003DC8C298D2AAE63AF647C007D64120362
:1007B600DC7C007D0A1203DC8C2B8D2CAE63AF64CF
:1007C6007C007D0A1203DC7C007D0A1203DC8C2D82
:1007D6008D2EAE63AF647C007D0A1203DC8C2F8DF8
:0107E60030E2
:0107E70022EF
:100CAC00E55C704B755C01120BF28F5DE549655D7F
:100CBC00FFE55DF45FF55FE55D5FF548855D492413
:100CCC00FE602324FD602214602224057021E5249B
:100CDC007002C201E524B40202C2000524E524B46A
:100CEC00040DE4F524220210110207E81206762204
:100D8000200119753911753A01753B10753C1085B4
:100D90002A3D852C3E852E3F8530402275391175C0
:100DA0003A02753B10753C1085553D85573E855977
:050DB0003F855B4022BD
:100B8D00200019753912753A0F753B10854B3C8550
:100B9D004D3D854F3E85513F855340227539127528
:100BAD003A0AE53675F00A8475F00A8485F03BE55E
:100BBD003675F00A8485F03CE53775F00A8475F0DA
:100BCD000A8485F03DE53775F00A8485F03EE538F9
:100BDD0075F00A8475F00A8485F03FE53875F00AE2
:050BED008485F04022A8
:100B06007B007A007921120DE9E54245417077E5CF
:100B160024146023146023146069240370687539F3
:100B26000F753A10753B1085433C85443D85453E1F
:100B360085463F85474022020D80E52175F00A84EF
:100B460075F00A8485F039E52175F00A8485F03A56
:100B5600753B13E52275F00A8475F00A8485F03C2E
:100B6600E52275F00A8485F03D753E13E52375F0A0
:100B76000A8475F00A8485F03FE52375F00A8485BA
:070B8600F04022120B8D224A
:10095900E524704EFDFCFF120D45E56270077D012F
:10096900FCFF120D45D3E5289564E5636480F8E53D
:10097900276480984014E4FDFC7F01120D45E5626F
:1009890070087D01FC7F01120D45C3E52764809441
:1009990080504E7D017C007F01120D45E4FDFCFF76
:1009A900803CE4FDFCFF120D45E4FDFC7F01120DC6
:1009B90045E4FDFC7F02120D45E4FDFC7F03120DA9
:1009C90045E4FDFC7F04120D45E4FDFC7F05120D95
:1009D90045E4FDFC7F06120D45E4FDFC7F07120D81
:0209E9004522A5
:100EE700E5A0541F44B0F5A0E4F58075A01F7580F8
:100EF700FFE5A0541F4480F5A07580FF75A01F2251
:100F9200758906758B18758DFCC28FD28DD28ED253
:080FA2008CD2AFD2A9D2AB2220
:10047500E4F50CAE31AF32FC7D0A1203CAE5262F36
:10048500F528E5253EF527C36480948050030205D1
:100495006FAE27AF287C277D101203DC7C007D0A18
:1004A5001203DCED4C70047F108002AF058F43E52D
:1004B5004364107020AE27AF287C037DE81203DC6F
:1004C5007C007D0A1203DCED4C70047F108002AFC6
:1004D500058F448014AE27AF287C037DE81203DC2A
:1004E5007C007D0A1203DC8D44E5446410701FAE68
:1004F50027AF28FC7D641203DC7C007D0A1203DC37
:10050500ED4C70047F108002AF058F458014AE2737
:10051500AF287C007D641203DC7C007D0A1203DCBD
:100525008D45E5456410701FAE27AF28FC7D0A1286
:1005350003DC7C007D0A1203DCED4C70047F108027
:1005450002AF058F468014AE27AF287C007D0A12C6
:1005550003DC7C007D0A1203DC8D46AE27AF287CC8
:10056500007D0A1203DC8D47800F7543107544101A
:10057500754510754614754714C3E5276480948046
:100585005005E4FF120FC2C3E52764809480401232
:10059500D3E52894F4E5276480948150057F3312D0
:1005A5000FC2D3E52894F4E527648094814060D395
:1005B500E5289564E5636480F8E527648098504FE5
:1005C500E528240CFDE52734FEFC1202C18F108EB0
:1005D5000F8D0E8C0DE564240CFDE56334FEFC12D5
:1005E50002C1AB07AA06A905A804AF10AE0FAD0E50
:1005F500AC0D12021FE4FBFA794C7843120116E4A4
:10060500FBFA794C78421200251202FA120FC2D376
:10061500E5289564E5636480F8E5276480984005DE
:100625007FFF120FC2C3E5359528E5276480F8E5FD
:10063500346480985035852734852835E4F50C7465
:1006450021250CF8E6FF7436250CF8A607050CE500
:100655000CB403EBE4FF74432FF8E6FDEF25E0242B
:100665004AF8760008A6050FBF05EBE4F531F5322B
:010675002262
:03000B00020FEBF6
:100FEB00C0E0758CFF758AFF0532E5327002053162
:030FFB00D0E03211
:03001B000209EBEC
:1009EB00C0E0C0F0C083C082C0D075D000C000C0D2
:1009FB0001C002C003C004C005C006C007758B1838
:100A0B00758DFC12095975A0FF055CE55CB40A03F2
:100A1B00755C00055EE55EB40803755E00E5426437
:100A2B006445417004F541F5420562E562B4C803C3
:100A3B007562000561E56170020560646445607074
:100A4B0007F560F5611204757439255EF8E6FDAFA4
:100A5B005E120E1DD007D006D005D004D003D002F5
:0F0A6B00D001D000D0D0D082D083D0F0D0E032F4
:100F5E00120F92120EE77B007A007921120CFC120E
:0A0F6E000CAC120B0612095980F5B5
:100BF200E4FFC2C4D2C2D2B5D2B420B3030F801371
:100C020020B2047F02800C20B1047F03800520B053
:100C1200027F04D2C4C2C2D2B5D2B420B3047F05CB
:100C2200801320B2047F06800C20B1047F07800568
:100C320020B0027F08D2C4D2C2C2B5D2B420B3035C
:100C42007F092220B2037F0A2220B1037F0B2220D8
:040C5200B0027F0C61
:010C5600227B
:100F0700C0F9A4B0999282F880908883C6A1868E92
:0D0F1700FF8C89BFC7010204081020408034
:100E1D007580FFE5A0541F44E0F5A053A01FEF908F
:100E2D000F1C93F580E5A0541F44C0F5A053A01FDF
:100E3D00ED900F0793F580E5A0541F44E0F5A05306
:030E4D00A01F22C1
:100FFE00E4FEC297EF1392A3EFC313FFD2970EBE78
:02100E0008F0E8
:0110100022BD
:100FD700C29300C29700D29300120FFEAF05120F03
:040FE700FEC2932291
:100DB500E4FDC29300C29700D29300120FFEE4FF38
:100DC500C297EDC313FD30A303430580D2970FBF30
:100DD50008EEC29300C29700D29700C2A300D2A327
:030DE50000AF0557
:010DE80022E8
:060CFC008B088A09890A39
:090D0200E4FCFD7F8E120FD7E422
:100D0B00AB08AA09A90A8C8275830012037BFF75B5
:100D1B00F00A84C454F0FEEF75F00A84E5F04EF54A
:0F0D2B000BEC25E0FFC374849FFFAD0B120FD7B5
:0B0D3A000CBC03CD7D807F8E020FD724
:060DE9008B088A09890A4B
:100DEF00E4FCEC25E0FFC374859FFF120DB5EFC443
:100DFF00540F75F00AA4FEEF540F2EAB08AA09A9E1
:0D0E0F000A8C827583001203A80CBC03D569
:010E1C0022B3
:040F7800D2A07F057F
:100F7C00000000000000000000000000000000AEB7
:060F8C00071FEE70EB22CE
:0F102000D2A1120F78C2A17F05120F7CC2A022AD
:0C000E00C2A1120F78D2A17F05020F7C66
:020E5000AD07EC
:100E5200E4FCC2A07F05120F7CED30E704D2A18032
:100E620002C2A17F05120F7CD2A0ED25E0FD7F0515
:090E7200120F7C0CBC08DBC2A0CD
:010E7B002254
:100F2400E4FC120F78ED25E0FD30A103430501C276
:0C0F3400A07F05120F7C0CBC08E8AF0584
:010F4000228E
:0B0F4100120E50120F4CAF03120E50A6
:100F4C00120F78A2A1E433FDC2A07F05120F7CAF73
:010F5C00058F
:010F5D002271
:100FAA00C2A0EF24FF92A17F05120F7C120F78C214
:080FBA00A0D2A17F05020F7C0B
:020E7C00AB07C2
:100E7E001210207F90120F411210207F91120E50EF
:100E8E00120F4C120F24AD077F01120FAA12000E83
:020E9E00AF059E
:010EA000222F
:100FC200AB071210207F90120E50120F4C7F41126D
:050FD2000F4102000EBA
:100C99000111000112FF0113000114FF01150001E8
:020CA90016FF34
:100D4500ED4C600FA8077401088002C333D8FC423C
:100D550011800EA8077401088002C333D8FCF45231
:100D650011E51165126013E511F4F580E5A0541F36
:0A0D75004480F5A053A01F85111261
:010D7F002251
:100EA100EF600543134080035313BFE513651460DE
:100EB10011851380E5A0541F44A0F5A053A01F8500
:020EC100131408
:010EC300220C
:100EC400EF600543151080035315EFE515651660B3
:100ED40011851580E5A0541F44A0F5A053A01F85DB
:020EE4001516E1
:010EE60022E9
:10001E00020366E86480F8E933E83360110460F0A7
:10002E00ED33EC337009E8FCE9FDEAFEEBFF220448
:10003E0060DED3EB9FEA9EE99DE8C2E78CF0C2F743
:10004E0095F0400CE8CCF8E9CDF9EACEFAEBCFFB0F
:10005E0012033185D0F05804700320D5B3E8047034
:10006E00075002B2D502037092D5EC0460F7E4CCCF
:10007E00C0E0C398F8603B94186008400DD0E0FBD8
:10008E00020348E4FBFAC9FC8028E830E406E4C920
:10009E00FBE4CAFCE830E305E4C9CACBFCE854072C
:1000AE006010F8C3E913F9EA13FAEB13FBEC13FC37
:1000BE00D8F130F52FC3E49CFCEF9BFFEE9AFEEDDA
:1000CE0099FDD0E0FBEF4E4D4C701222DB03020384
:1000DE006DEC2CFCEF33FFEE33FEED33FDED30E730
:1000EE00EB020348EF2BFFEE3AFEED39FDD0E0FBBD
:1000FE0050130BBB0003020370ED13FDEE13FEEF66
:08010E0013FFEC13FC0203488F
:10011600EC4D6011E8497017ED33EC3304600DE4E3
:10012600FCFFFEFD22E933E8330470F80203661291
:10013600033158046009E4CC248150062850090292
:10014600037028400302036DC0E0EB4A7044B98097
:1001560006D0E0FB02035CEF4E701CBD8008EBFF8F
:10016600EAFEE9FD80EBE98DF0A4FEE5F00201FF71
:10017600E9CDF9EAFEEBFFEF89F0A4FCE5F0CE89C4
:10018600F0A42EFFE435F0CD89F0A42DFEE435F081
:100196008067EF4E7005BD80D780C3EF8BF0A4ACAF
:1001A600F0EE8BF0A42CFCE435F0F8EF8AF0A42CEA
:1001B600E5F038FCE433CB8DF0A42CFCE5F03BF8FD
:1001C600EE8AF0A42CFCE5F038F8E433CF89F0A4ED
:1001D6002CFCE5F038CF3400CE89F0A42FFFE5F0F3
:1001E6003EFEE433C98DF0A42EFEE5F039CD8AF04B
:1001F600A42FFFE5F03EFEE43DFD33D0E0FB5007C3
:100206000BBB000F020370EC2CFCEF33FFEE33FE4A
:06021600ED33FD02034878
:10021C00020370EC5D046005E85904700302036688
:10022C00120331580460F6EC4860F2EC7004FDFEE9
:10023C00FF22C860DB2481C85009C39860025006B5
:10024C0002036D9850CAF582E9294B4A7005AB82BE
:10025C0002035C75F0007C1A7880C3EF9BEE9AED7C
:10026C0099400DC3EF9BFFEE9AFEED99FDE842F02D
:10027C00DC23ACF0D0E0FFD0E0FED0E0FDAB822080
:10028C00E7101BEB60BAEC2CFCEF33FFEE33FEED0A
:10029C0033FD020348E803F830E705C0F075F000C1
:1002AC00EF2FFFEE33FEED33FD40B830E7C280AAEE
:1002BC0075F020800E75F010800575F0087D007EBD
:1002CC00007F003392D530D503120412EC3340106A
:1002DC00EF33FFEE33FEED33FDEC33FCD5F0ED22C6
:0E02EC00E5F0247EA2D513CC92E7CDCEFF2202
:1002FA00EDD2E7CD33EC3392D524814006E4FFFEFC
:10030A00FDFC22FCE4CFCECDCC24E0501174FF805A
:10031A00EDC3CC13CCCD13CDCE13CECF13CF0470F7
:07032A00F030D5DE020412E1
:10033100E9D2E7C933E833F892D5EDD2E7CD33EC12
:0703410033FC5002B2D5228B
:10034800EC30E7100FBF000C0EBE00080DBD000416
:100358000BEB6014A2D5EB13FCED92E7FD2274FFC2
:10036800FCFDFEFF22E480F8A2D574FF13FC7D801B
:03037800E480EF2F
:100A8600020F5EE493A3F8E493A34003F68001F219
:100A960008DFF48029E493A3F85407240CC8C33371
:100AA600C4540F4420C8834004F456800146F6DF40
:100AB600E4800B0102040810204080900C57E47E6D
:100AC600019360BCA3FF543F30E509541FFEE49335
:100AD600A360010ECF54C025E060A840B8E493A3FC
:100AE600FAE493A3F8E493A3C8C582C8CAC583CA27
:100AF600F0A3C8C582C8CAC583CADFE9DEE780BEDF
:010CAB000048
:10037B00BB010CE58229F582E5833AF583E0225037
:10038B0006E92582F8E622BBFE06E92582F8E22281
:0D039B00E58229F582E5833AF583E493229B
:1003A800F8BB010DE58229F582E5833AF583E8F08B
:1003B800225006E92582C8F622BBFE05E92582C837
:0203C800F2221F
:1003CA00EF8DF0A4A8F0CF8CF0A428CE8DF0A42E47
:0203DA00FE2201
:1003DC00C2D5EC30E709B2D5E4C39DFDE49CFCEE3C
:1003EC0030E715B2D5E4C39FFFE49EFE120420C390
:1003FC00E49DFDE49CFC800312042030D507C3E48B
:06040C009FFFE49EFE22AA
:0E041200C3E49FFFE49EFEE49DFDE49CFC22FB
:10042000BC000BBE0029EF8DF084FFADF022E4CCC0
:10043000F875F008EF2FFFEE33FEEC33FCEE9DEC89
:10044000984005FCEE9DFE0FD5F0E9E4CEFD22EDCF
:10045000F8F5F0EE8420D21CFEADF075F008EF2F19
:10046000FFED33FD4007985006D5F0F222C398FD0A
:050470000FD5F0EA22A7
:00000001FF
