:030000000205DF17
:0C05DF00787FE4F6D8FD75815F020626E7
:1006B400083110101010101010100827000000004E
:1006C400000000000321171900012617C101C10011
:0206D400C10261
:10055000E53D60030205DE753D011206FC8F3EE5B8
:100560003E653CFF553EF53BE53EF45FF544853E78
:100570003CE53B24F6601F24FD601F146036240513
:1005800070550525E5257002052464034524704750
:10059000F524F5258041B201803DE525640245241E
:1005A0007035E526C3940A402EE526D39462502781
:1005B00005268023E525640245247011E526C394B1
:1005C0000B400AE526D394635003152622E52564E3
:0F05D0000145247002D200E544B40E02C200229D
:1003B0007B007A007921120820E53A453960030272
:1003C00004BCE52460030204BCE5251460601470DD
:1003D00003020491240260030204BC1208548F43F8
:1003E0008E428D418C40752D01753112753201752B
:1003F000331075341075351012026BEF75F00A84E6
:1004000075F00A8485F036EF75F00A8485F037E4DC
:10041000FFFE7D207C41AB43AA42A941A8401200C7
:100420000E12026B7C007D0A12034D8D3822E4F51A
:100430002D75311275320275331020002AE52175B1
:10044000F00A8475F00A8485F034E52175F00A8499
:1004500085F035753611E52275F00A8475F00A8449
:1004600085F037E522804EE52275F00A8475F00AA2
:100470008485F034E52275F00A8485F035753611EF
:10048000E52375F00A8475F00A8485F037E523804A
:1004900024E4F52D7531127532037533107534105F
:1004A000753510753610E52675F00A8475F00A84E6
:0D04B00085F037E52675F00A8485F03822C6
:10088800E5227016E5237012D203FF120740E53007
:10089800452F7006C203FF120740200104D20380CF
:0908A80002C2037F011207402285
:10077A0030011BAC26E4120237AB43AA42A941A8B6
:10078A00401201B44004D203801BC2038017E52241
:10079A007016E5237012D2031208D8D202E530454A
:0907AA002F7005C2031208D822C9
:1009AA005389F0758A18758CFCC28DD28CD2AFD25D
:0209BA00A92270
:100919005380BFE5A0541F44B0F5A053A01F7580B4
:0D092900FFE5A0541F4480F5A053A01F223D
:03000B000204BD2F
:1004BD00C0E0C0F0C083C082C0D075D000C000C005
:1004CD0001C002C003C004C005C006C007758A186C
:1004DD00758CFC053DE53DB40A03753D00053FE512
:1004ED003FB40803753F00053AE53A7002053964DB
:1004FD00C845397004F539F53A3002190530E53043
:10050D007002052FFFAE2FBE130BBF8808752F008D
:10051D00753000C2027431253FF8E6FD7427253F82
:10052D00F8E6FBAF3F1207B3D007D006D005D004D5
:10053D00D003D002D001D000D0D0D082D083D0F063
:03054D00D0E032C9
:100936001209191209AA7B007A00792112066B1294
:0D09460005501203B012088812077A80F2E3
:1006FC00E4FFD2C4D2C2C2B5D2B420B3047F098005
:10070C001320B2047F0A800C20B1047F0B800520DB
:10071C00B0027F0CD2C4D2C2D2B5C2B420B3037F14
:10072C000D2220B2037F0E2220B1037F0F2220B0B6
:03073C00027F1029
:01073F002297
:1006D600085801020408102040801345C0F9A4B050
:0F06E600999282F880908883C6A1868EFFBFC14B
:1007B3007580FFE5A0541F44E0F5A053A01F7458B3
:1007C3002FF8E6F580E5A0541F44C0F5A053A01F01
:1007D30074452DF8E6F580EB600353807FE5A05464
:0907E3001F44E0F5A053A01F2201
:10099700E4FEC297EF1392A3EFC313FFD2970EBEE5
:0209A70008F056
:0109A900222B
:10098300C29300C29700D29300120997AF051209D0
:0409930097C2932252
:1007EC00E4FDC29300C29700D29300120997E4FF74
:1007FC00C297EDC313FD30A303430580D2970FBFFF
:10080C0008EEC29300C29700D29700C2A300D2A3F5
:03081C0000AF0525
:01081F0022B6
:06066B008B088A09890AD0
:09067100E4FCFD7F8E120983E414
:10067A00AB08AA09A90A8C827583001202ECFF75DD
:10068A00F00A84C454F0FEEF75F00A84E5F04EF5E2
:0F069A000BEC25E0FFC374849FFFAD0B120983A7
:0B06A9000CBC03CD7D807F8E02098316
:060820008B088A09890A19
:10082600E4FCEC25E0FFC374859FFF1207ECEFC4E0
:10083600540F75F00AA4FEEF540F2EAB08AA09A9AF
:0D0846000A8C827583001203190CBC03D5C7
:010853002282
:04096D007F057E0084
:100971007C007D0C12033BEF1FAC0670011E4C7016
:02098100F6225C
:0208FB00AB0749
:1008FD00E4FAC294EB13929412096DD294EBC313E4
:0C090D00FB0ABA08ED7F057E00020971AC
:10095300E4FAC294EBC313FBD294309403430380B1
:0909630012096D0ABA08EBAF039A
:01096C002268
:1008B100C203D2947F0C7E00120971C2947F507ED4
:1008C10000120971D2947F0A7E00120971A29492DA
:0608D1000312096DA203F1
:0108D70022FE
:100854001208B17FCC1208FB7F441208FB1208B1C6
:100864007FCC1208FB7FBE1208FB120953A90712A2
:100874000953EFAD01FCEC120232E4FBFA79807803
:040884004102011715
:0606F500010C00010DFFE5
:1007400030030FA8077401088002C333D8FC420CA1
:10075000800EA8077401088002C333D8FCF4520C41
:10076000E50C650D6013E50CF4F580E5A0541F441D
:0A07700080F5A053A01F850C0D2298
:1008D800300305430C108003530CEFE50C650D60E5
:1008E80011850C80E5A0541F44B0F5A053A01F85C6
:0308F8000C0D22C2
:10000E00EC4D6011E8497017ED33EC3304600DE4EC
:10001E00FCFFFEFD22E933E8330470F80202D7122A
:10002E0002A258046009E4CC24815006285009022B
:10003E0002E12840030202DEC0E0EB4A7044B980C0
:10004E0006D0E0FB0202CDEF4E701CBD8008EBFF28
:10005E00EAFEE9FD80EBE98DF0A4FEE5F00200F783
:10006E00E9CDF9EAFEEBFFEF89F0A4FCE5F0CE89CD
:10007E00F0A42EFFE435F0CD89F0A42DFEE435F08A
:10008E008067EF4E7005BD80D780C3EF8BF0A4ACB8
:10009E00F0EE8BF0A42CFCE435F0F8EF8AF0A42CF3
:1000AE00E5F038FCE433CB8DF0A42CFCE5F03BF806
:1000BE00EE8AF0A42CFCE5F038F8E433CF89F0A4F6
:1000CE002CFCE5F038CF3400CE89F0A42FFFE5F0FC
:1000DE003EFEE433C98DF0A42EFEE5F039CD8AF054
:1000EE00A42FFFE5F03EFEE43DFD33D0E0FB5007CC
:1000FE000BBB000F0202E1EC2CFCEF33FFEE33FEE4
:06010E00ED33FD0202B911
:100114000202E1EC5D046005E8590470030202D7B1
:100124001202A2580460F6EC4860F2EC7004FDFE82
:10013400FF22C860DB2481C85009C39860025006BE
:100144000202DE9850CAF582E9294B4A7005AB8257
:100154000202CD75F0007C1A7880C3EF9BEE9AED15
:1001640099400DC3EF9BFFEE9AFEED99FDE842F036
:10017400DC23ACF0D0E0FFD0E0FED0E0FDAB822089
:10018400E7101BEB60BAEC2CFCEF33FFEE33FEED13
:1001940033FD0202B9E803F830E705C0F075F0005A
:1001A400EF2FFFEE33FEED33FD40B830E7C280AAF7
:1001B40074F8CC6480CCC86480C8F58204604FC3F2
:1001C400EB9FF5F0EA9E42F0E99D42F0E89C45F091
:1001D400603C501DE5825FFFE582D313CB5BCBF41B
:1001E4002B5582FB50280ABA002409B90020088044
:1001F4001DE5825BFBE582D313CF5FCFF4C3132FDE
:100204005582FF50090EBE00050DBD00010CC3EB65
:100214009FF5F0EA9E42F0E99D42F0E89C45F060CB
:0902240007CC4820E701B3EC22ED
:10022D0075F020800E75F010800575F0087D007E4C
:10023D00007F003392D530D5031203A2EC3340106A
:10024D00EF33FFEE33FEED33FDEC33FCD5F0ED2255
:0E025D00E5F0247EA2D513CC92E7CDCEFF2291
:10026B00EDD2E7CD33EC3392D524814006E4FFFE8B
:10027B00FDFC22FCE4CFCECDCC24E0501174FF80EA
:10028B00EDC3CC13CCCD13CDCE13CECF13CF047087
:07029B00F030D5DE0203A2E2
:1002A200E9D2E7C933E833F892D5EDD2E7CD33ECA2
:0702B20033FC5002B2D5221B
:1002B900EC30E7100FBF000C0EBE00080DBD0004A6
:1002C9000BEB6014A2D5EB13FCED92E7FD2274FF52
:1002D900FCFDFEFF22E480F8A2D574FF13FC7D80AB
:0302E900E480EFBF
:1005EB00020936E493A3F8E493A34003F68001F2E7
:1005FB0008DFF48029E493A3F85407240CC8C33311
:10060B00C4540F4420C8834004F456800146F6DFDF
:10061B00E4800B01020408102040809006B4E47EB5
:10062B00019360BCA3FF543F30E509541FFEE493D4
:10063B00A360010ECF54C025E060A840B8E493A39B
:10064B00FAE493A3F8E493A3C8C582C8CAC583CAC6
:10065B00F0A3C8C582C8CAC583CADFE9DEE780BE7E
:0106FB0000FE
:1002EC00BB010CE58229F582E5833AF583E02250C7
:1002FC0006E92582F8E622BBFE06E92582F8E22211
:0D030C00E58229F582E5833AF583E493222A
:10031900F8BB010DE58229F582E5833AF583E8F01A
:10032900225006E92582C8F622BBFE05E92582C8C6
:02033900F222AE
:10033B00EF8DF0A4A8F0CF8CF0A428CE8DF0A42ED6
:02034B00FE2290
:10034D00BC000BBE0029EF8DF084FFADF022E4CC94
:10035D00F875F008EF2FFFEE33FEEC33FCEE9DEC5D
:10036D00984005FCEE9DFE0FD5F0E9E4CEFD22EDA3
:10037D00F8F5F0EE8420D21CFEADF075F008EF2FED
:10038D00FFED33FD4007985006D5F0F222C398FDDE
:05039D000FD5F0EA227B
:0E03A200C3E49FFFE49EFEE49DFDE49CFC226C
:00000001FF
