:100E8900C0F9A4B0999282F880908883C6A1868E11
:100E9900BF8C89C78082848A86888C8183858B8769
:020EA900898D31
:100D420007280503130613042401380001310001AA
:100D52003000012500013601013701013400012F65
:100D6200FF013200013300022600000221092E0297
:100D72003F07D00223000002410000023D000004B0
:0A0D82003900000000013500C10037
:030D8D00FD7F06E1
:100D900053A01F8D80EF24FC601214601914602092
:100DA0001460272407702B53A01F8026E5A0541F32
:100DB0004480F5A0801CE5A0541F44A0F5A080123B
:100DC000E5A0541F44C0F5A08008E5A0541F44E0EE
:060DD000F5A053A01F2254
:081004007F0C7EA9DEFEDFFC7B
:01100C0022C1
:100BC800F583E493FD7F05120C17AE41AF427C001C
:100BD8007D641208C27C007D0A1208C274892DF552
:100BE80082740E3CF583E493FD7F06120C17AE4128
:100BF800AF427C007D0A1208C27C007D0A1208C23E
:0F0C080074892DF582740E3CF583E493FD7F070C
:100C1700AC07AE05EC14FFF87401088002C333D8A3
:100C2700FC120D8DAD060F120D90121004EC14FF7F
:100C3700F87401088002C333D8FC120D8D7DFF0FB5
:030C4700020D900B
:10001E00E5251470030201D7147003020320147037
:10002E000302037A24036003020564300014900E69
:10003E0098E493FD7F01120C17900E9C120C120285
:10004E000507D3E522940FE521648094A75003029F
:10005E0000EF900E98E493FD7F01120C17AE21AFC6
:10006E00227C277D101208C274892FF582740E3EF1
:10007E00F583E493FD7F04120C17AE21AF227C03AF
:10008E007DE81208C27C007D0A1208C274892DF523
:10009E0082740E3CF583E493FD7F05120C17AE219E
:1000AE00AF227C007D641208C27C007D0A1208C259
:1000BE0074892DF582740E3CF583E493FD7F061250
:1000CE000C17AE21AF22120BFAAE21AF227C007DAF
:1000DE000A1208C274892DF582740E3CF58302054E
:1000EE0007D3E52294E7E521648094834044900E83
:1000FE0098E493FD7F01120C17AE21AF227C037D95
:10010E00E81208C274892FF582740E3EF583E493CB
:10011E00FD7F05120C17AE21AF227C007D64120804
:10012E00C27C007D0A1208C274892DF582740E3CC1
:10013E00802BD3E5229463E5216480948040369031
:10014E000E98E493FD7F01120C17AE21AF227C00B6
:10015E007D641208C274892FF582740E3EF583E415
:10016E0093FD7F06120C17AE21AF22120BFAAE21B1
:10017E00AF220203EAD3E5229409E521648094803C
:10018E00900E98E493FD7F01402F120C17AE21AF15
:10019E00227C007D0A1208C274892FF582740E3EED
:1001AE00120C10AE21AF227C007D0A1208C2748997
:1001BE002DF582740E3C020505120C17748925224A
:1001CE00F582740E3521020505E53624FE606B04BA
:1001DE006003020564900E9AE493FD7F01120C17E2
:1001EE00900E8AE493FD7F02120C17AE3FAF407C57
:1001FE00037DE81208C274892FF582740E3EF583D2
:10020E00E493FD7F05120C17AE3FAF407C007D647A
:10021E001208C27C007D0A1208C274892DF5827400
:10022E000E3CF583E493FD7F06120C17AE3FAF40F4
:10023E00120BFAAE3FAF400203EAD3E5249400E579
:10024E0023648094804041900E9AE493FD7F0112C6
:10025E000C17900E8BE493FD7F02120C17AE23AF9A
:10026E00247C007D641208C274892FF582740E3EC0
:10027E00F583E493FD7F06120C17AE23AF24120B09
:10028E00FAAE23AF240203EAE5244523900E9A70BA
:10029E001893FD7F01120C17900E8BE493FD7F02D5
:1002AE00120C17900E8902031DE493FD7F01120CB0
:1002BE0017900E8BE493FD7F02120C17900E99E4AB
:1002CE0093FD7F05120C17C3E49524FFE49523FEDE
:1002DE007C007D641208C274892FF582740E3EF57F
:1002EE0083E493FD7F06120C17C3E49524FFE49577
:1002FE0023FE120BFAC3E49524FFE49523FE7C0043
:10030E007D0A1208C274892DF582740E3CF58302A3
:10031E000507E52AC4540F900E8993FD7F01120C38
:10032E0017E52A540F93FD7F02120C17900E99E4D5
:10033E0093FD7F03120C17E529C4540F900E899379
:10034E00FD7F04120C17E529540F93FD7F05120C47
:10035E0017900E99E493FD7F06120C17E528C454EE
:10036E000F900E89120C13E52802055BE53724FE6B
:10037E00700302050A046003020564D3E542940F7C
:10038E00E541648094A74068900E9BE493FD7F0145
:10039E00120C17900E98E493FD7F02120C17AE41CB
:1003AE00AF427C277D101208C274892FF582740E1D
:1003BE003EF583E493FD7F04120C17AE41AF427CF1
:1003CE00037DE81208C27C007D0A1208C274892DD2
:1003DE00F582740E3C120BC8AE41AF427C007D0A12
:1003EE001208C274892DF582740E3CF5830205073E
:1003FE00D3E54294E7E541648094834044900E9B9C
:10040E00E493FD7F01120C17900E98E493FD7F028A
:10041E00120C17AE41AF427C037DE81208C27489FC
:10042E002FF582740E3E120BC8AE41AF427C007D9A
:10043E000A1208C274892DF582740E3CF5830205EA
:10044E0007D3E5429463E541648094804043900E67
:10045E009BE493FD7F01120C17900E98E493FD7FA1
:10046E0002120C17AE41AF427C007D641208C274BA
:10047E00892FF582740E3E120BECAE41AF427C001A
:10048E007D0A1208C274892DF582740E3CF58380A4
:10049E0068D3E5429409E54164809480900E9BE414
:1004AE0093FD7F014039120C17900E98E493FD7F57
:1004BE0002120C17AE41AF427C007D0A1208C274C4
:1004CE00892FF582740E3E120C10AE41AF427C00A5
:1004DE007D0A1208C274892DF582740E3C801812A2
:1004EE000C17900E98E493FD7F02120C1774892559
:1004FE0042F582740E3541F583E48053900E9BE4F1
:10050E0093FD7F01120C17900E93E493FD7F021260
:10051E000C17E538C4540F900E8993FD7F03120C0F
:10052E0017E538540F93FD7F04120C17E531C454B0
:10053E000F93FD7F05120C17E531540F93FD7F06C7
:10054E00120C17E530C4540F120C13E530540F93F0
:07055E00FD7F08120C1722BB
:100F0E00E525B40305E4F52580020525E525B401A4
:0D0F1E0003753601E525B403037537012284
:100E6700E525B4010CE536B40205753601800205A7
:100E770036E525B4030BE537B402047537012205BF
:020E8700372210
:100CF700E52564017044E536B4011EE540B4280DCE
:100D0700E53FB42308753F037540E8800C74E82578
:100D170040F5407403353FF53FE536B4021CE52442
:100D2700B4840CE523B403077523FC75247C227473
:0B0D3700642524F524E43523F5232275
:100CAB00E52564017045E536B4011EE540B4E80D59
:100CBB00E53FB40308753F23754028800C74182555
:100CCB0040F54074FC353FF53FE536B4021DE52495
:100CDB00B47C0CE523B4FC077523037524842274C0
:0C0CEB009C2524F52474FF3523F52322FA
:040FDA007F147E0002
:0B0FDE00EF1FAC0670011E4C70F622E5
:100C4A00C2B2D2C2D2C4D2B320C411120FDA20C4A3
:100C5A000B20C40512001E80F8120E6720C2111262
:100C6A000FDA20C20B20C20512001E80F8120CAB4C
:100C7A00C2B3D2C2D2C4D2B220C411120FDA20C473
:100C8A000B20C40512001E80F8120F0E20C211128A
:100C9A000FDA20C20B20C20512001E80F8120CF7D0
:010CAA002227
:100E0A00750807E4FD7F8E120F7DE4F508E508906A
:100E1A000E9D93FF74282508F8E6FD120F7D120037
:100E2A001E0508E508C3940740E37D807F8E020F04
:010E3A007D3A
:100EAB00750807E4F508E508900EA493FF120DD61C
:100EBB0074282508F8A6070508E508C3940740E63B
:010ECB002204
:100F4800758915E4F58E758D3C758BB0F58CF58A31
:0B0F5800D2AFD2ABD28EC2A9D28C2245
:03001B0002095B7C
:10095B00C0E0C0F0C083C082C0D075D000C000C062
:10096B0001C002C003C004C005C006C007758D3CA2
:10097B00758BB0E52570210532E53264047027F5DF
:10098B0032E52F30E007532FFEAD2F8014E52F54A7
:10099B00FE4401F52FFD8009E52F54FE4401F52F90
:1009AB00FD7F04120D90D3E5229540E53F6480F85E
:1009BB00E52164809840210533E53364047027F505
:1009CB0033E52F30E107532FFDAD2F8014E52F5466
:1009DB00FD4402F52FFD8009E52F54FD4402F52F50
:1009EB00FD7F04120D90300007532FFDAD2F8009B2
:1009FB00E52F54FD4402F52FFD7F04120D900534B5
:100A0B00E5346414706EF534AF8CEFAD8AF526EDDA
:100A1B00F527758C00758A0085213D85223EE527DB
:100A2B002524F522E5263523F521C36480948050D7
:100A3B0004D2008002C20020003AD3E5229542E5A1
:100A4B00416480F8E5216480984029852141852205
:100A5B0042900EA6E493FF120DD68F38900EA5E4AC
:100A6B0093FF120DD68F31900EA4E493FF120DD687
:100A7B008F308000D007D006D005D004D003D00231
:0F0A8B00D001D000D0D0D082D083D0F0D0E032D4
:100F9100120FE97F90120E3B120FB77F40120E3BEA
:030FA100020FB785
:100A9A00D3E5229540E53F6480F8E52164809840DB
:100AAA00067535FF020B35D3E52294F4E5216480FF
:100ABA0094814074E5229540E53F6480F8E521641D
:100ACA0080985064AE21E5227802C333CE33CED863
:100ADA00F92430FDEE34F8FC1208088F3C8E3B8D69
:100AEA003A8C39E540240CFDE53F34FEFC12080837
:100AFA00A804A905AA06AB07AF3CAE3BAD3AAC3990
:100B0A00120766E4FBFA7980783F12056CE4FBFA77
:100B1A007980784312065DE4FBFA79A078401207DF
:100B2A00661208418F358003753534300003E4F5C9
:020B3A00352262
:100ECC00120A9A120FE97F90120E3B120FB77F4055
:100EDC00120E3B120FB7AF35120E3B120FB7020FAB
:010EEC00F80D
:100EED00E4FD7F06120D907DFF0F120D907F041211
:100EFD000D90E4FD0F120D90120F91120F48020E7E
:010F0D000AD9
:100FC900120EED120ECC120EAB120C4A12001E803C
:010FD900F225
:100FA400E4FEC297EF1392A3EFC313FFD2970EBED2
:020FB40008F043
:010FB6002218
:100F7D00C29300C29700D29300120FA4AF05120FB7
:040F8D00A4C2932245
:100DD600E4FDC29300C29700D29300120FA4E4FF71
:100DE600C297EDC313FD30A303430580D2970FBF0F
:100DF60008EEC29300C29700D29700C2A300D2A306
:030E060000AF0535
:010E090022C6
:040F6300D2A07F0A8F
:100F6700000000000000000000000000000000AECC
:060F7700071FEE70EB22E3
:0F0FE900D2A1120F63C2A17F0A120F67C2A0220A
:0C0FF800C2A1120F63D2A17F0A020F6792
:020E3B00AD0701
:100E3D00E4FCC2A07F0A120F67ED30E704D2A18057
:100E4D0002C2A17F0A120F67D2A0ED25E0FD7F0A35
:090E5D00120F670CBC08DBC2A0F7
:010E66002269
:100F2B00E4FC120F63ED25E0FD30A103430501C284
:0C0F3B00A07F0A120F670CBC08E8AF058D
:010F47002287
:100FB700120F63A2A1E433FDC2A07F0A120F67AF2D
:010FC7000524
:010FC8002206
:10000300C2A0EF24FF92A17F0A120F67120F63C2EF
:08001300A0D2A17F0A020F67D1
:100565000208ADE86480F8E933E83360110460F00F
:10057500ED33EC337009E8FCE9FDEAFEEBFF2204FC
:1005850060DED3EB9FEA9EE99DE8C2E78CF0C2F7F7
:1005950095F0400CE8CCF8E9CDF9EACEFAEBCFFBC3
:1005A50012087885D0F05804700320D5B3E804709C
:1005B500075002B2D50208B792D5EC0460F7E4CC37
:1005C500C0E0C398F8603B94186008400DD0E0FB8C
:1005D50002088FE4FBFAC9FC8028E830E406E4C988
:1005E500FBE4CAFCE830E305E4C9CACBFCE85407E0
:1005F5006010F8C3E913F9EA13FAEB13FBEC13FCEB
:10060500D8F130F52FC3E49CFCEF9BFFEE9AFEED8D
:1006150099FDD0E0FBEF4E4D4C701222DB03020832
:10062500B4EC2CFCEF33FFEE33FEED33FDED30E79C
:10063500EB02088FEF2BFFEE3AFEED39FDD0E0FB24
:1006450050130BBB00030208B7ED13FDEE13FEEFCD
:0806550013FFEC13FC02088FF7
:10065D00EC4D6011E8497017ED33EC3304600DE497
:10066D00FCFFFEFD22E933E8330470F80208AD12F9
:10067D00087858046009E4CC2481500628500902FA
:10068D0008B72840030208B4C0E0EB4A7044B980B3
:10069D0006D0E0FB0208A3EF4E701CBD8008EBFFF7
:1006AD00EAFEE9FD80EBE98DF0A4FEE5F0020746D8
:1006BD00E9CDF9EAFEEBFFEF89F0A4FCE5F0CE8978
:1006CD00F0A42EFFE435F0CD89F0A42DFEE435F035
:1006DD008067EF4E7005BD80D780C3EF8BF0A4AC63
:1006ED00F0EE8BF0A42CFCE435F0F8EF8AF0A42C9E
:1006FD00E5F038FCE433CB8DF0A42CFCE5F03BF8B1
:10070D00EE8AF0A42CFCE5F038F8E433CF89F0A4A0
:10071D002CFCE5F038CF3400CE89F0A42FFFE5F0A6
:10072D003EFEE433C98DF0A42EFEE5F039CD8AF0FE
:10073D00A42FFFE5F03EFEE43DFD33D0E0FB500776
:10074D000BBB000F0208B7EC2CFCEF33FFEE33FEB2
:06075D00ED33FD02088FE0
:100763000208B7EC5D046005E8590470030208ADA4
:10077300120878580460F6EC4860F2EC7004FDFE51
:10078300FF22C860DB2481C85009C3986002500669
:100793000208B49850CAF582E9294B4A7005AB8226
:1007A3000208A375F0007C1A7880C3EF9BEE9AEDE4
:1007B30099400DC3EF9BFFEE9AFEED99FDE842F0E1
:1007C300DC23ACF0D0E0FFD0E0FED0E0FDAB822034
:1007D300E7101BEB60BAEC2CFCEF33FFEE33FEEDBE
:1007E30033FD02088FE803F830E705C0F075F00029
:1007F300EF2FFFEE33FEED33FD40B830E7C280AAA2
:1008030075F020800E75F010800575F0087D007E70
:10081300007F003392D530D5031208F8EC33401033
:10082300EF33FFEE33FEED33FDEC33FCD5F0ED2279
:0E083300E5F0247EA2D513CC92E7CDCEFF22B5
:10084100EDD2E7CD33EC3392D524814006E4FFFEAF
:10085100FDFC22FCE4CFCECDCC24E0501174FF800E
:10086100EDC3CC13CCCD13CDCE13CECF13CF0470AB
:07087100F030D5DE0208F8AB
:10087800E9D2E7C933E833F892D5EDD2E7CD33ECC6
:0708880033FC5002B2D5223F
:10088F00EC30E7100FBF000C0EBE00080DBD0004CA
:10089F000BEB6014A2D5EB13FCED92E7FD2274FF76
:1008AF00FCFDFEFF22E480F8A2D574FF13FC7D80CF
:0308BF00E480EFE3
:03000000020B3CB4
:0C0B3C00787FE4F6D8FD758142020B833F
:1008C200C2D5EC30E709B2D5E4C39DFDE49CFCEE51
:1008D20030E715B2D5E4C39FFFE49EFE120906C3BA
:1008E200E49DFDE49CFC800312090630D507C3E4B5
:0608F2009FFFE49EFE22C0
:0E08F800C3E49FFFE49EFEE49DFDE49CFC2211
:100B4800020FC9E493A3F8E493A34003F68001F2EB
:100B580008DFF48029E493A3F85407240CC8C333AE
:100B6800C4540F4420C8834004F456800146F6DF7D
:100B7800E4800B0102040810204080900D42E47EBE
:100B8800019360BCA3FF543F30E509541FFEE49372
:100B9800A360010ECF54C025E060A840B8E493A339
:100BA800FAE493A3F8E493A3C8C582C8CAC583CA64
:100BB800F0A3C8C582C8CAC583CADFE9DEE780BE1C
:010D8C000066
:10090600BC000BBE0029EF8DF084FFADF022E4CCD5
:10091600F875F008EF2FFFEE33FEEC33FCEE9DEC9E
:10092600984005FCEE9DFE0FD5F0E9E4CEFD22EDE4
:10093600F8F5F0EE8420D21CFEADF075F008EF2F2E
:10094600FFED33FD4007985006D5F0F222C398FD1F
:050956000FD5F0EA22BC
:00000001FF
